{
    "_format": "hh-sol-artifact-1",
    "contractName": "Wallet",
    "sourceName": "contracts/Wallet/Wallet.sol",
    "abi": [
        {
            "inputs": [
                {
                    "internalType": "address",
                    "name": "_owner",
                    "type": "address"
                }
            ],
            "stateMutability": "nonpayable",
            "type": "constructor"
        },
        {
            "anonymous": false,
            "inputs": [
                {
                    "indexed": false,
                    "internalType": "address",
                    "name": "approvedTo",
                    "type": "address"
                }
            ],
            "name": "ApproveForConfiguration",
            "type": "event"
        },
        {
            "anonymous": false,
            "inputs": [
                {
                    "indexed": false,
                    "internalType": "address",
                    "name": "_blacklistedTo",
                    "type": "address"
                },
                {
                    "indexed": false,
                    "internalType": "bytes",
                    "name": "blacklistActionBytes",
                    "type": "bytes"
                },
                {
                    "indexed": false,
                    "internalType": "uint256",
                    "name": "_expiryBlock",
                    "type": "uint256"
                },
                {
                    "indexed": false,
                    "internalType": "address",
                    "name": "_autoExecuteTo",
                    "type": "address"
                },
                {
                    "indexed": false,
                    "internalType": "bytes",
                    "name": "autoExecuteActionBytes",
                    "type": "bytes"
                }
            ],
            "name": "blacklistedActionsSetted",
            "type": "event"
        },
        {
            "inputs": [
                {
                    "internalType": "address",
                    "name": "_approveAddress",
                    "type": "address"
                }
            ],
            "name": "ApproveForConfigure",
            "outputs": [],
            "stateMutability": "nonpayable",
            "type": "function"
        },
        {
            "inputs": [
                {
                    "internalType": "address",
                    "name": "_autoExecuteTo",
                    "type": "address"
                },
                {
                    "internalType": "bytes",
                    "name": "_autoExecuteActionBytes",
                    "type": "bytes"
                }
            ],
            "name": "autoExecuteTo",
            "outputs": [],
            "stateMutability": "nonpayable",
            "type": "function"
        },
        {
            "inputs": [
                {
                    "internalType": "address",
                    "name": "",
                    "type": "address"
                },
                {
                    "internalType": "bytes",
                    "name": "",
                    "type": "bytes"
                }
            ],
            "name": "blacklistedAction",
            "outputs": [
                {
                    "internalType": "address",
                    "name": "blacklistedTo",
                    "type": "address"
                },
                {
                    "internalType": "bytes",
                    "name": "blacklistActionBytes",
                    "type": "bytes"
                },
                {
                    "internalType": "bool",
                    "name": "isBlacklisted",
                    "type": "bool"
                }
            ],
            "stateMutability": "view",
            "type": "function"
        },
        {
            "inputs": [
                {
                    "internalType": "address",
                    "name": "",
                    "type": "address"
                },
                {
                    "internalType": "bytes",
                    "name": "",
                    "type": "bytes"
                }
            ],
            "name": "blacklistedActionAutoExecute",
            "outputs": [
                {
                    "internalType": "uint256",
                    "name": "expiryBlock",
                    "type": "uint256"
                },
                {
                    "internalType": "address",
                    "name": "autoExecuteTo",
                    "type": "address"
                },
                {
                    "internalType": "bytes",
                    "name": "autoExecuteActionBytes",
                    "type": "bytes"
                }
            ],
            "stateMutability": "view",
            "type": "function"
        },
        {
            "inputs": [
                {
                    "internalType": "address",
                    "name": "",
                    "type": "address"
                },
                {
                    "internalType": "uint256",
                    "name": "",
                    "type": "uint256"
                }
            ],
            "name": "blacklistedFunctions",
            "outputs": [
                {
                    "internalType": "address",
                    "name": "blacklistedTo",
                    "type": "address"
                },
                {
                    "internalType": "bytes",
                    "name": "blacklistFunctionsBytes",
                    "type": "bytes"
                },
                {
                    "internalType": "bool",
                    "name": "isBlacklisted",
                    "type": "bool"
                }
            ],
            "stateMutability": "view",
            "type": "function"
        },
        {
            "inputs": [
                {
                    "internalType": "address",
                    "name": "",
                    "type": "address"
                }
            ],
            "name": "isApprovedToSetBlacklist",
            "outputs": [
                {
                    "internalType": "bool",
                    "name": "",
                    "type": "bool"
                }
            ],
            "stateMutability": "view",
            "type": "function"
        },
        {
            "inputs": [
                {
                    "internalType": "address",
                    "name": "_to",
                    "type": "address"
                },
                {
                    "internalType": "bytes",
                    "name": "callBytes",
                    "type": "bytes"
                }
            ],
            "name": "makeTransaction",
            "outputs": [],
            "stateMutability": "nonpayable",
            "type": "function"
        },
        {
            "inputs": [],
            "name": "owner",
            "outputs": [
                {
                    "internalType": "address",
                    "name": "",
                    "type": "address"
                }
            ],
            "stateMutability": "view",
            "type": "function"
        },
        {
            "inputs": [
                {
                    "internalType": "address",
                    "name": "_blacklistedTo",
                    "type": "address"
                },
                {
                    "internalType": "bytes",
                    "name": "_blacklistActionBytes",
                    "type": "bytes"
                },
                {
                    "internalType": "uint256",
                    "name": "_expiryBlock",
                    "type": "uint256"
                },
                {
                    "internalType": "address",
                    "name": "_autoExecuteTo",
                    "type": "address"
                },
                {
                    "internalType": "bytes",
                    "name": "_autoExecuteActionBytes",
                    "type": "bytes"
                }
            ],
            "name": "setBlacklistedActions",
            "outputs": [],
            "stateMutability": "nonpayable",
            "type": "function"
        },
        {
            "inputs": [
                {
                    "internalType": "address",
                    "name": "_blacklistedTo",
                    "type": "address"
                },
                {
                    "internalType": "bytes",
                    "name": "_blacklistFunctionBytes",
                    "type": "bytes"
                },
                {
                    "internalType": "uint256",
                    "name": "_expiryBlock",
                    "type": "uint256"
                },
                {
                    "internalType": "address",
                    "name": "_autoExecuteTo",
                    "type": "address"
                },
                {
                    "internalType": "bytes",
                    "name": "_autoExecuteActionBytes",
                    "type": "bytes"
                }
            ],
            "name": "setBlacklistedContractFunction",
            "outputs": [],
            "stateMutability": "nonpayable",
            "type": "function"
        }
    ],
    "bytecode": "0x60806040523480156200001157600080fd5b506040516200220e3803806200220e833981810160405281019062000037919062000095565b806000806101000a81548173ffffffffffffffffffffffffffffffffffffffff021916908373ffffffffffffffffffffffffffffffffffffffff160217905550506200010f565b6000815190506200008f81620000f5565b92915050565b600060208284031215620000a857600080fd5b6000620000b8848285016200007e565b91505092915050565b6000620000ce82620000d5565b9050919050565b600073ffffffffffffffffffffffffffffffffffffffff82169050919050565b6200010081620000c1565b81146200010c57600080fd5b50565b6120ef806200011f6000396000f3fe608060405234801561001057600080fd5b506004361061009e5760003560e01c806392ada4761161006657806392ada47614610171578063b0bf7f7d1461018d578063bf19962a146101a9578063f4f534d0146101c5578063fb8a281e146101e15761009e565b8063387ee62d146100a357806346b39b82146100bf5780638da5cb5b146100f15780638f98cfee1461010f5780639192193014610141575b600080fd5b6100bd60048036038101906100b891906116fb565b610213565b005b6100d960048036038101906100d49190611803565b6107f6565b6040516100e893929190611b94565b60405180910390f35b6100f96108f8565b6040516101069190611b14565b60405180910390f35b61012960048036038101906101249190611803565b61091c565b60405161013893929190611cad565b60405180910390f35b61015b600480360381019061015691906116d2565b610a11565b6040516101689190611bd2565b60405180910390f35b61018b600480360381019061018691906116fb565b610a31565b005b6101a760048036038101906101a29190611753565b610bb3565b005b6101c360048036038101906101be9190611753565b610f86565b005b6101df60048036038101906101da91906116d2565b611338565b005b6101fb60048036038101906101f69190611857565b611457565b60405161020a93929190611b94565b60405180910390f35b6000600160003373ffffffffffffffffffffffffffffffffffffffff1673ffffffffffffffffffffffffffffffffffffffff16815260200190815260200160002060009054906101000a900460ff16905060008054906101000a900473ffffffffffffffffffffffffffffffffffffffff1673ffffffffffffffffffffffffffffffffffffffff163373ffffffffffffffffffffffffffffffffffffffff1614806102bb5750805b6102fa576040517f08c379a00000000000000000000000000000000000000000000000000000000081526004016102f190611bed565b60405180910390fd5b6000600260008673ffffffffffffffffffffffffffffffffffffffff1673ffffffffffffffffffffffffffffffffffffffff168152602001908152602001600020848460405161034b929190611acd565b90815260200160405180910390206040518060600160405290816000820160009054906101000a900473ffffffffffffffffffffffffffffffffffffffff1673ffffffffffffffffffffffffffffffffffffffff1673ffffffffffffffffffffffffffffffffffffffff1681526020016001820180546103ca90611e4b565b80601f01602080910402602001604051908101604052809291908181526020018280546103f690611e4b565b80156104435780601f1061041857610100808354040283529160200191610443565b820191906000526020600020905b81548152906001019060200180831161042657829003601f168201915b505050505081526020016002820160009054906101000a900460ff16151515158152505090506000600460008773ffffffffffffffffffffffffffffffffffffffff1673ffffffffffffffffffffffffffffffffffffffff168152602001908152602001600020805480602002602001604051908101604052809291908181526020016000905b828210156105ff57838290600052602060002090600302016040518060600160405290816000820160009054906101000a900473ffffffffffffffffffffffffffffffffffffffff1673ffffffffffffffffffffffffffffffffffffffff1673ffffffffffffffffffffffffffffffffffffffff16815260200160018201805461055390611e4b565b80601f016020809104026020016040519081016040528092919081815260200182805461057f90611e4b565b80156105cc5780601f106105a1576101008083540402835291602001916105cc565b820191906000526020600020905b8154815290600101906020018083116105af57829003601f168201915b505050505081526020016002820160009054906101000a900460ff161515151581525050815260200190600101906104ca565b50505050905060005b81518110156106f85781818151811061064a577f4e487b7100000000000000000000000000000000000000000000000000000000600052603260045260246000fd5b6020026020010151602001516040516020016106669190611ae6565b60405160208183030381529060405280519060200120868660405160200161068f929190611acd565b60405160208183030381529060405280519060200120146106e5576040517f08c379a00000000000000000000000000000000000000000000000000000000081526004016106dc90611c4d565b60405180910390fd5b80806106f090611eae565b915050610608565b5081604001511561073e576040517f08c379a000000000000000000000000000000000000000000000000000000000815260040161073590611c0d565b60405180910390fd5b60008673ffffffffffffffffffffffffffffffffffffffff168686604051610767929190611acd565b6000604051808303816000865af19150503d80600081146107a4576040519150601f19603f3d011682016040523d82523d6000602084013e6107a9565b606091505b50509050806107ed576040517f08c379a00000000000000000000000000000000000000000000000000000000081526004016107e490611c2d565b60405180910390fd5b50505050505050565b600260205281600052604060002081805160208101820180518482526020830160208501208183528095505050505050600091509150508060000160009054906101000a900473ffffffffffffffffffffffffffffffffffffffff169080600101805461086290611e4b565b80601f016020809104026020016040519081016040528092919081815260200182805461088e90611e4b565b80156108db5780601f106108b0576101008083540402835291602001916108db565b820191906000526020600020905b8154815290600101906020018083116108be57829003601f168201915b5050505050908060020160009054906101000a900460ff16905083565b60008054906101000a900473ffffffffffffffffffffffffffffffffffffffff1681565b600360205281600052604060002081805160208101820180518482526020830160208501208183528095505050505050600091509150508060000154908060010160009054906101000a900473ffffffffffffffffffffffffffffffffffffffff169080600201805461098e90611e4b565b80601f01602080910402602001604051908101604052809291908181526020018280546109ba90611e4b565b8015610a075780601f106109dc57610100808354040283529160200191610a07565b820191906000526020600020905b8154815290600101906020018083116109ea57829003601f168201915b5050505050905083565b60016020528060005260406000206000915054906101000a900460ff1681565b6000600360008573ffffffffffffffffffffffffffffffffffffffff1673ffffffffffffffffffffffffffffffffffffffff1681526020019081526020016000208383604051610a82929190611acd565b9081526020016040518091039020905080600001544311610ad8576040517f08c379a0000000000000000000000000000000000000000000000000000000008152600401610acf90611c6d565b60405180910390fd5b60008160010160009054906101000a900473ffffffffffffffffffffffffffffffffffffffff1673ffffffffffffffffffffffffffffffffffffffff1682600201604051610b269190611afd565b6000604051808303816000865af19150503d8060008114610b63576040519150601f19603f3d011682016040523d82523d6000602084013e610b68565b606091505b5050905080610bac576040517f08c379a0000000000000000000000000000000000000000000000000000000008152600401610ba390611c2d565b60405180910390fd5b5050505050565b6000600160003373ffffffffffffffffffffffffffffffffffffffff1673ffffffffffffffffffffffffffffffffffffffff16815260200190815260200160002060009054906101000a900460ff16905060008054906101000a900473ffffffffffffffffffffffffffffffffffffffff1673ffffffffffffffffffffffffffffffffffffffff163373ffffffffffffffffffffffffffffffffffffffff161480610c5b5750805b610c9a576040517f08c379a0000000000000000000000000000000000000000000000000000000008152600401610c9190611bed565b60405180910390fd5b60405180606001604052808973ffffffffffffffffffffffffffffffffffffffff16815260200188888080601f016020809104026020016040519081016040528093929190818152602001838380828437600081840152601f19601f82011690508083019250505050505050815260200160011515815250600260008a73ffffffffffffffffffffffffffffffffffffffff1673ffffffffffffffffffffffffffffffffffffffff1681526020019081526020016000208888604051610d61929190611acd565b908152602001604051809103902060008201518160000160006101000a81548173ffffffffffffffffffffffffffffffffffffffff021916908373ffffffffffffffffffffffffffffffffffffffff1602179055506020820151816001019080519060200190610dd2929190611553565b5060408201518160020160006101000a81548160ff02191690831515021790555090505060405180606001604052808681526020018573ffffffffffffffffffffffffffffffffffffffff16815260200184848080601f016020809104026020016040519081016040528093929190818152602001838380828437600081840152601f19601f82011690508083019250505050505050815250600360008673ffffffffffffffffffffffffffffffffffffffff1673ffffffffffffffffffffffffffffffffffffffff1681526020019081526020016000208484604051610eba929190611acd565b90815260200160405180910390206000820151816000015560208201518160010160006101000a81548173ffffffffffffffffffffffffffffffffffffffff021916908373ffffffffffffffffffffffffffffffffffffffff1602179055506040820151816002019080519060200190610f35929190611553565b509050507fdb5f480cd834c3ae6c06fe551b8311f88dab4b63adcc7f8c916fb3cd7b15150a88888888888888604051610f749796959493929190611b2f565b60405180910390a15050505050505050565b6000600160003373ffffffffffffffffffffffffffffffffffffffff1673ffffffffffffffffffffffffffffffffffffffff16815260200190815260200160002060009054906101000a900460ff16905060008054906101000a900473ffffffffffffffffffffffffffffffffffffffff1673ffffffffffffffffffffffffffffffffffffffff163373ffffffffffffffffffffffffffffffffffffffff16148061102e5750805b61106d576040517f08c379a000000000000000000000000000000000000000000000000000000000815260040161106490611bed565b60405180910390fd5b6000878760009060049261108393929190611d8e565b8080601f016020809104026020016040519081016040528093929190818152602001838380828437600081840152601f19601f820116905080830192505050505050509050600460008a73ffffffffffffffffffffffffffffffffffffffff1673ffffffffffffffffffffffffffffffffffffffff16815260200190815260200160002060405180606001604052808b73ffffffffffffffffffffffffffffffffffffffff16815260200183815260200160011515815250908060018154018082558091505060019003906000526020600020906003020160009091909190915060008201518160000160006101000a81548173ffffffffffffffffffffffffffffffffffffffff021916908373ffffffffffffffffffffffffffffffffffffffff16021790555060208201518160010190805190602001906111c7929190611553565b5060408201518160020160006101000a81548160ff021916908315150217905550505060405180606001604052808781526020018673ffffffffffffffffffffffffffffffffffffffff16815260200185858080601f016020809104026020016040519081016040528093929190818152602001838380828437600081840152601f19601f82011690508083019250505050505050815250600360008773ffffffffffffffffffffffffffffffffffffffff1673ffffffffffffffffffffffffffffffffffffffff16815260200190815260200160002085856040516112ae929190611acd565b90815260200160405180910390206000820151816000015560208201518160010160006101000a81548173ffffffffffffffffffffffffffffffffffffffff021916908373ffffffffffffffffffffffffffffffffffffffff1602179055506040820151816002019080519060200190611329929190611553565b50905050505050505050505050565b60008054906101000a900473ffffffffffffffffffffffffffffffffffffffff1673ffffffffffffffffffffffffffffffffffffffff163373ffffffffffffffffffffffffffffffffffffffff16146113c6576040517f08c379a00000000000000000000000000000000000000000000000000000000081526004016113bd90611c8d565b60405180910390fd5b60018060008373ffffffffffffffffffffffffffffffffffffffff1673ffffffffffffffffffffffffffffffffffffffff16815260200190815260200160002060006101000a81548160ff0219169083151502179055507ff04703c50d64d60accc6d9eb34f89301c71f415c0983a848d2e4c01f22423ad08160405161144c9190611b14565b60405180910390a150565b6004602052816000526040600020818154811061147357600080fd5b9060005260206000209060030201600091509150508060000160009054906101000a900473ffffffffffffffffffffffffffffffffffffffff16908060010180546114bd90611e4b565b80601f01602080910402602001604051908101604052809291908181526020018280546114e990611e4b565b80156115365780601f1061150b57610100808354040283529160200191611536565b820191906000526020600020905b81548152906001019060200180831161151957829003601f168201915b5050505050908060020160009054906101000a900460ff16905083565b82805461155f90611e4b565b90600052602060002090601f01602090048101928261158157600085556115c8565b82601f1061159a57805160ff19168380011785556115c8565b828001600101855582156115c8579182015b828111156115c75782518255916020019190600101906115ac565b5b5090506115d591906115d9565b5090565b5b808211156115f25760008160009055506001016115da565b5090565b600061160961160484611d10565b611ceb565b90508281526020810184848401111561162157600080fd5b61162c848285611e09565b509392505050565b6000813590506116438161208b565b92915050565b60008083601f84011261165b57600080fd5b8235905067ffffffffffffffff81111561167457600080fd5b60208301915083600182028301111561168c57600080fd5b9250929050565b600082601f8301126116a457600080fd5b81356116b48482602086016115f6565b91505092915050565b6000813590506116cc816120a2565b92915050565b6000602082840312156116e457600080fd5b60006116f284828501611634565b91505092915050565b60008060006040848603121561171057600080fd5b600061171e86828701611634565b935050602084013567ffffffffffffffff81111561173b57600080fd5b61174786828701611649565b92509250509250925092565b600080600080600080600060a0888a03121561176e57600080fd5b600061177c8a828b01611634565b975050602088013567ffffffffffffffff81111561179957600080fd5b6117a58a828b01611649565b965096505060406117b88a828b016116bd565b94505060606117c98a828b01611634565b935050608088013567ffffffffffffffff8111156117e657600080fd5b6117f28a828b01611649565b925092505092959891949750929550565b6000806040838503121561181657600080fd5b600061182485828601611634565b925050602083013567ffffffffffffffff81111561184157600080fd5b61184d85828601611693565b9150509250929050565b6000806040838503121561186a57600080fd5b600061187885828601611634565b9250506020611889858286016116bd565b9150509250929050565b61189c81611dc1565b82525050565b6118ab81611dd3565b82525050565b60006118bd8385611d61565b93506118ca838584611e09565b6118d383611f84565b840190509392505050565b60006118ea8385611d72565b93506118f7838584611e09565b82840190509392505050565b600061190e82611d56565b6119188185611d61565b9350611928818560208601611e18565b61193181611f84565b840191505092915050565b600061194782611d56565b6119518185611d72565b9350611961818560208601611e18565b80840191505092915050565b6000815461197a81611e4b565b6119848186611d72565b9450600182166000811461199f57600181146119b0576119e3565b60ff198316865281860193506119e3565b6119b985611d41565b60005b838110156119db578154818901526001820191506020810190506119bc565b838801955050505b50505092915050565b60006119f9600883611d7d565b9150611a0482611f95565b602082019050919050565b6000611a1c600b83611d7d565b9150611a2782611fbe565b602082019050919050565b6000611a3f600883611d7d565b9150611a4a82611fe7565b602082019050919050565b6000611a62601383611d7d565b9150611a6d82612010565b602082019050919050565b6000611a85600883611d7d565b9150611a9082612039565b602082019050919050565b6000611aa8600683611d7d565b9150611ab382612062565b602082019050919050565b611ac781611dff565b82525050565b6000611ada8284866118de565b91508190509392505050565b6000611af2828461193c565b915081905092915050565b6000611b09828461196d565b915081905092915050565b6000602082019050611b296000830184611893565b92915050565b600060a082019050611b44600083018a611893565b8181036020830152611b5781888a6118b1565b9050611b666040830187611abe565b611b736060830186611893565b8181036080830152611b868184866118b1565b905098975050505050505050565b6000606082019050611ba96000830186611893565b8181036020830152611bbb8185611903565b9050611bca60408301846118a2565b949350505050565b6000602082019050611be760008301846118a2565b92915050565b60006020820190508181036000830152611c06816119ec565b9050919050565b60006020820190508181036000830152611c2681611a0f565b9050919050565b60006020820190508181036000830152611c4681611a32565b9050919050565b60006020820190508181036000830152611c6681611a55565b9050919050565b60006020820190508181036000830152611c8681611a78565b9050919050565b60006020820190508181036000830152611ca681611a9b565b9050919050565b6000606082019050611cc26000830186611abe565b611ccf6020830185611893565b8181036040830152611ce18184611903565b9050949350505050565b6000611cf5611d06565b9050611d018282611e7d565b919050565b6000604051905090565b600067ffffffffffffffff821115611d2b57611d2a611f55565b5b611d3482611f84565b9050602081019050919050565b60008190508160005260206000209050919050565b600081519050919050565b600082825260208201905092915050565b600081905092915050565b600082825260208201905092915050565b60008085851115611d9e57600080fd5b83861115611dab57600080fd5b6001850283019150848603905094509492505050565b6000611dcc82611ddf565b9050919050565b60008115159050919050565b600073ffffffffffffffffffffffffffffffffffffffff82169050919050565b6000819050919050565b82818337600083830152505050565b60005b83811015611e36578082015181840152602081019050611e1b565b83811115611e45576000848401525b50505050565b60006002820490506001821680611e6357607f821691505b60208210811415611e7757611e76611f26565b5b50919050565b611e8682611f84565b810181811067ffffffffffffffff82111715611ea557611ea4611f55565b5b80604052505050565b6000611eb982611dff565b91507fffffffffffffffffffffffffffffffffffffffffffffffffffffffffffffffff821415611eec57611eeb611ef7565b5b600182019050919050565b7f4e487b7100000000000000000000000000000000000000000000000000000000600052601160045260246000fd5b7f4e487b7100000000000000000000000000000000000000000000000000000000600052602260045260246000fd5b7f4e487b7100000000000000000000000000000000000000000000000000000000600052604160045260246000fd5b6000601f19601f8301169050919050565b7f21616c6c6f776564000000000000000000000000000000000000000000000000600082015250565b7f6e6f7420616c6c6f776564000000000000000000000000000000000000000000600082015250565b7f2173756363657373000000000000000000000000000000000000000000000000600082015250565b7f544869732066756e632069732062616e6e656400000000000000000000000000600082015250565b7f2165787069726564000000000000000000000000000000000000000000000000600082015250565b7f216f776e65720000000000000000000000000000000000000000000000000000600082015250565b61209481611dc1565b811461209f57600080fd5b50565b6120ab81611dff565b81146120b657600080fd5b5056fea26469706673582212209d31ff5146c0f2d27cb1c2007ae0f3ce3f8c8a145b41194dd3054c1d0e4d358464736f6c63430008040033",
    "linkReferences": {},
    "deployedLinkReferences": {}
}